S00A000074342E7372656372
S11300000C942A000C943F000C943F000C943F0085
S11300100C943F000C943F000C943F000C943F0060
S11300200C943F000C943F000C943F000C943F0050
S11300300C943F000C943F000C943F000C943F0040
S11300400C943F000C943F000C943F000C943F0030
S11300500C943F0011241FBECFE5D8E0DEBFCDBF16
S113006010E0A0E6B0E0EAE2F3E002C005900D92F1
S1130070AE36B107D9F70E9430010C9493010C9469
S1130080000088BB8BB38E7F8BBB8BB38D7F8BBB08
S11300908BB384608BBB00008BB38B7F8BBB89EFEE
S11300A090E00197F1F700C00000089583ED90E31C
S11300B00197F1F700C000008FEF87BB8ABB88E38C
S11300C00E9441008EE00E94410081E00E944100B4
S11300D080E80E944100089581E00E94410080E888
S11300E00E9441000895823050F420E4829FC001B0
S11300F011248068603108F4860F0E94410008953D
S113010088BB8BB381608BBB8BB38D7F8BBB8BB375
S113011084608BBB00008BB38B7F8BBB89EF90E03B
S11301200197F1F700C000000895CF93DF93EC012D
S113013003C021960E94800088818111FACFDF914B
S1130140CF910895EF92FF920F931F93CF93DF9374
S1130150EC017C01F694E794F694E794F694E79422
S1130160F694E7949701A7E4B3E00E9484018C011C
S113017016950795169507951695079580E3800FB4
S11301800E94800020E137E2029FC001039F900D8E
S1130190129F900D1124C81BD90B7E01F694E7948D
S11301A0F694E794F694E7949701A5ECB0E20E94E4
S11301B084018C01129502950F7001271F7001278D
S11301C080E3800F0E94800028EE33E0029FC0018C
S11301D0039F900D129F900D1124C81BD90B7E0113
S11301E0F694E794F694E7949701ABE7B4E10E94A0
S11301F084018C011695079580E3800F0E9480008E
S113020024E6209FC001219F900D1124C81BD90B07
S11302109E01ADECBCEC0E9484018C0116950795FF
S1130220169507951695079580E3800F0E94800028
S1130230C801880F991F000F111F000F111F000F15
S1130240111F080F191FCE01801B910B805D0E94A6
S11302508000DF91CF911F910F91FF90EF9008954F
S11302600E94560081B3806881BB82B38C6082BBDC
S11302700E946C0060E080E00E94730080E690E0E1
S11302800E9495002FE986E891E02150804090403B
S1130290E1F700C0000060E080E00E9473000E946B
S11302A06C00829B14C016C08C2F90E00E94A200A8
S11302B060E080E00E94730083E294EF0197F1F71D
S11302C000C0000082B3805882BBCF5F01C0C0E091
S11302D0C53150F382B382BB8399E3CFC4E18C2F41
S11302E090E00E94A20060E080E00E94730083E23C
S11302F094EF0197F1F700C0000082B3805882BBED
S1130300CC2379F2C150EBCFA29FB001B39FC001BF
S1130310A39F700D811D1124911DB29F700D811D2D
S10D03201124911D0895F894FFCFF5
S111032A48656C6C6F20576F6C726421000084
S9030000FC
