:100000000C942A000C9434000C9434000C943400AA
:100010000C9434000C9434000C9434000C94340090
:100020000C9434000C9434000C9434000C94340080
:100030000C9434000C9434000C9434000C94340070
:100040000C9434000C9434000C9434000C94340060
:100050000C94340011241FBECFE5D8E0DEBFCDBF25
:100060000E9436000C9455000C94000087B387BBA7
:1000700088B3816088BB81B3806881BB86B38111FE
:1000800012C082B3806882BB87EA91E60197F1F7DC
:1000900000C0000082B38F7782BB87EA91E60197A8
:0E00A000F1F700C0000012BAE9CFF894FFCFCC
:00000001FF
