:100000000C942A000C9434000C9434000C943400AA
:100010000C9434000C9434000C9434000C94340090
:100020000C9434000C9434000C9434000C94340080
:100030000C9434000C9434000C9434000C94340070
:100040000C9434000C9434000C9434000C94340060
:100050000C94340011241FBECFE5D8E0DEBFCDBF25
:100060000E9436000C9453000C94000081B3806809
:1000700081BB82B38C6082BB8299FECF82B38068E1
:1000800082BB87EA91E60197F1F700C0000082B3D6
:100090008F7782BB87EA91E60197F1F700C00000F5
:0A00A0008399ECCFE9CFF894FFCF6D
:00000001FF
