S00A000054582E737265636E
S11300000C942A000C9434000C9434000C943400A6
S11300100C9434000C9434000C9434000C9434008C
S11300200C9434000C9434000C9434000C9434007C
S11300300C9434000C9434000C9434000C9434006C
S11300400C9434000C9434000C9434000C9434005C
S11300500C94340011241FBECFE5D8E0DEBFCDBF21
S11300600E9443000C9452000C94000088E18AB969
S113007086E880BD1BB810BC87E489B908955D9BF0
S1130080FECF8CB9089517BA8FEF88BB0E94360053
S113009086B30E943F0083E294EF0197F1F700C01A
S10B00A00000F6CFF894FFCF35
S9030000FC
