S00A000052582E7372656370
S11300000C942A000C9434000C9434000C943400A6
S11300100C9434000C9434000C9434000C9434008C
S11300200C9434000C9434000C9434000C9434007C
S11300300C9434000C9434000C9434000C9434006C
S11300400C9434000C9434000C9434000C9434005C
S11300500C94340011241FBECFE5D8E0DEBFCDBF21
S11300600E942E010C947D010C94000088BB8BB37C
S11300708E7F8BBB8BB38D7F8BBB8BB384608BBB31
S113008082E08A95F1F700C08BB38B7F8BBB8FEC3A
S113009097E00197F1F700C0000008952FE788E387
S11300A091E0215080409040E1F700C000008FEFC4
S11300B087BB8ABB88E30E9436008EE00E9436002C
S11300C081E00E94360080E80E943600089581E0B5
S11300D00E94360080E80E9436000895823050F471
S11300E020E4829FC00111248068603108F4860FE7
S11300F00E943600089588BB8BB381608BBB8BB3A1
S11301008D7F8BBB8BB384608BBB82E08A95F1F7C8
S113011000C08BB38B7F8BBB8FEC97E00197F1F71B
S113012000C000000895EF92FF920F931F93CF93A6
S1130130DF93EC017C01F694E794F694E794F6944B
S1130140E794F694E7949701A7E4B3E00E946E0164
S11301508C0116950795169507951695079580E3D6
S1130160800F0E947B0020E137E2029FC001039FC1
S1130170900D129F900D1124C81BD90B7E01F6948B
S1130180E794F694E794F694E7949701A5ECB0E22B
S11301900E946E018C01129502950F7001271F7049
S11301A0012780E3800F0E947B0028EE33E0029F4A
S11301B0C001039F900D129F900D1124C81BD90BF1
S11301C07E01F694E794F694E7949701ABE7B4E1E3
S11301D00E946E018C011695079580E3800F0E94A2
S11301E07B0024E6209FC001219F900D1124C81B91
S11301F0D90B9E01ADECBCEC0E946E018C011695EE
S11302000795169507951695079580E3800F0E942C
S11302107B00C801880F991F000F111F000F111FC9
S1130220000F111F080F191FCE01801B910B805D59
S11302300E947B00DF91CF911F910F91FF90EF906F
S1130240089588E18AB986E880BD1BB810BC87E4AC
S113025089B908955F9BFECF8CB108951F93CF9306
S1130260DF930E9421010E944E00D0E00E942A01E7
S1130270C82F8E3F91F411E01D0F8D2F90E00E9446
S113028093002FE78AE196E0215080409040E1F707
S113029000C00000CF3FE1F0D12FCD3F91F41FEF1C
S11302A01D0F8D2F90E00E9493002FE78AE196E0C6
S11302B0215080409040E1F700C00000CF3F41F062
S11302C0D12F60E080E00E946E000E946700CECFD4
S11302D080E090E0DF91CF911F910895A29FB0013B
S11302E0B39FC001A39F700D811D1124911DB29F66
S11102F0700D811D1124911D0895F894FFCF07
S9030000FC
