S00A000074332E7372656373
S11300000C942A000C943F000C943F000C943F0085
S11300100C943F000C943F000C943F000C943F0060
S11300200C943F000C943F000C943F000C943F0050
S11300300C943F000C943F000C943F000C943F0040
S11300400C943F000C943F000C943F000C943F0030
S11300500C943F0011241FBECFE5D8E0DEBFCDBF16
S113006010E0A0E6B0E0E8E3F1E002C005900D92F4
S1130070AA37B107D9F70E9441000C949A000C9456
S11300800000CF93DF93CDB7DEB769970FB6F8942E
S1130090DEBF0FBECDBF88E0E0E6F0E0DE011196E2
S11300A001900D928A95E1F781E1E8E6F0E0DE0146
S11300B0199601900D928A95E1F781B381BB82B3C1
S11300C08C6082BB8AB38FEF8ABB1BBA1BBA829B3C
S11300D011C015C0E1E0F0E0EC0FFD1FE80FF91FBF
S11300E020812BBBE7EAF1E63197F1F700C000006D
S11300F0019602C080E090E0893091055CF31BBA60
S1130100839B11C015C0E9E0F0E0EC0FFD1FE80F80
S1130110F91F20812BBBE7EAF1E63197F1F700C024
S11301200000019602C080E090E0823191055CF30A
S10B01301BBACCCFF894FFCFF9
S11301380102040810204080000103070F1F3F7FBD
S10D0148FFFEFCF8F0E0C0800000A8
S9030000FC
